:100000000C942A000C9447000C9447000C94470071
:100010000C9447000C9447000C9447000C94470044
:100020000C9447000C9447000C9447000C94470034
:100030000C9447000C94D0090C9447000C947D0953
:100040000C9447000C9447000C9447000C94470014
:100050000C94470011241FBECFE5D8E0DEBFCDBF12
:1000600010E0A0E6B0E0E0EFFDE102C005900D92E7
:10007000A039B107D9F710E0A0E9B0E001C01D92A6
:10008000A83DB107E1F70E948D0E0C94F60E0C947A
:100090000000EF92FF920F931F937B018C0120E0F1
:1000A00030E040E05FE40E94490388238CF0C801FF
:1000B000B70120E030E040E05FE40E94C1010E940F
:1000C000A9039B01AC01205030404040504806C07D
:1000D000C801B7010E94A9039B01AC01B901CA0183
:1000E0001F910F91FF90EF900895A0E0B0E0EBE733
:1000F000F0E00C94B80EDC012B01FA019C919230D7
:1001000008F439C1EB018881823008F433C194309E
:1001100069F4843009F02FC111969C91119789815F
:10012000981709F428C1A7E6B0E025C1843009F486
:1001300021C18230A9F4923009F01DC19A01AD01AC
:1001400088E0EA010990AE01E90109929E0181501F
:10015000C1F7E201898111969C918923818308C1AD
:10016000923009F407C112962D903C901397EB0141
:100170008A819B811496AD90BD90CD90DC901797AD
:10018000EC80FD800E811F819101281B390BB90184
:1001900037FF04C066277727621B730B6032710537
:1001A0000CF061C0121613066CF537014801062EDB
:1001B00004C096948794779467940A94D2F721E0C8
:1001C00030E040E050E004C0220F331F441F551FB1
:1001D0006A95D2F721503040404050402E213F21B7
:1001E00040235123211531054105510521F021E01E
:1001F00030E040E050E079018A01E628F72808293C
:1002000019293CC0232BD1F1260E371E350146019A
:10021000062E04C096948794779467940A94D2F734
:1002200021E030E040E050E004C0220F331F441FC3
:10023000551F6A95D2F721503040404050402A2146
:100240003B214C215D21211531054105510521F04E
:1002500021E030E040E050E059016A01A628B728CB
:10026000C828D9280BC0821593052CF01C01AA249C
:10027000BB24650103C0EE24FF24870111969C91E5
:10028000D20111968C91981709F445C0992339F041
:10029000A80197012A193B094C095D0906C0A6016E
:1002A00095012E193F09400B510B57FD08C01182D3
:1002B0003382228224833583468357831DC081E0A5
:1002C00081833382228288279927DC01821B930B4A
:1002D000A40BB50B84839583A683B7830DC0220F2F
:1002E000331F441F551F24833583468357838281E0
:1002F000938101979383828324813581468157813D
:10030000DA01C9010197A109B1098F5F9F4FAF4F72
:10031000BF4328F30BC0918333822282EA0CFB1C7B
:100320000C1D1D1DE482F5820683178383E0808304
:10033000248135814681578157FF1AC0C901AA27F8
:1003400097FDA095BA2F81709070A070B0705695EF
:10035000479537952795822B932BA42BB52B848318
:100360009583A683B7838281938101969383828349
:10037000DF0101C0D201CD01CDB7DEB7E2E10C94BF
:10038000D40EA0E2B0E0E7ECF1E00C94C40E698377
:100390007A838B839C832D833E834F835887E9E048
:1003A000EE2EF12CEC0EFD1ECE010196B7010E943F
:1003B000D2048E010F5E1F4FCE010596B8010E9438
:1003C000D2048A8991E089278A8BC701B801AE01DE
:1003D000475E5F4F0E9475000E94FD03A096E6E015
:1003E0000C94E00EA0E2B0E0E8EFF1E00C94C40E53
:1003F00069837A838B839C832D833E834F835887C5
:10040000F9E0EF2EF12CEC0EFD1ECE010196B701A6
:100410000E94D2048E010F5E1F4FCE010596B801D7
:100420000E94D204C701B801AE01475E5F4F0E942F
:1004300075000E94FD03A096E6E00C94E00EA0E299
:10044000B0E0E5E2F2E00C94B80E69837A838B8326
:100450009C832D833E834F835887CE010196BE0136
:10046000675F7F4F0E94D204CE010596BE016F5E8A
:100470007F4F0E94D2049985923088F0898982301A
:10048000C8F0943019F4823051F404C0843029F457
:10049000923081F487E690E0C6C0923049F420E0C3
:1004A0009A858A89981321E02A87CE010996BBC0D4
:1004B000823049F420E09A858A89981321E02A8BBA
:1004C000CE014196B0C02D843E844F8458886D88FB
:1004D0007E888F88988CEE24FF248701AA24BB2471
:1004E000650140E050E060E070E0E0E0F0E0C10174
:1004F00081709070892BE9F0E60CF71C081D191D1E
:100500009A01AB012A0D3B1D4C1D5D1D80E090E062
:10051000A0E0B0E0E614F7040805190520F481E036
:1005200090E0A0E0B0E0BA01A901480F591F6A1F8E
:100530007B1FAA0CBB1CCC1CDD1C97FE08C081E0F5
:1005400090E0A0E0B0E0A82AB92ACA2ADB2A3196B6
:10055000E032F10549F0660C771C881C991C569412
:10056000479437942794C3CFFA85EA892B893C892D
:100570008B859C85280F391F2E5F3F4F17C0CA01FE
:1005800081709070892B61F016950795F794E79428
:1005900080E090E0A0E0B0E8E82AF92A0A2B1B2BC3
:1005A00076956795579547952F5F3F4F77FDE7CF36
:1005B0000CC0440F551F661F771F17FD4160EE0CDE
:1005C000FF1C001F111F21503040403090E05907A0
:1005D00090E0690790E4790760F32B8F3C8FDB0193
:1005E000CA018F779070A070B07080349105A1051A
:1005F000B10561F447FD0AC0E114F10401051105DC
:1006000029F0405C5F4F6F4F7F4F40781A8EFE1786
:1006100011F081E08A8F4D8F5E8F6F8F78A383E01A
:10062000898FCE0149960E94FD03A096E2E10C94C9
:10063000D40EA8E1B0E0EFE1F3E00C94C40E6983BE
:100640007A838B839C832D833E834F83588789E0F5
:10065000E82EF12CEC0EFD1ECE010196B7010E9492
:10066000D2048E010F5E1F4FCE010596B8010E9485
:10067000D2048985823040F08989823028F0C70110
:10068000B8010E944A0501C08FEF6896E6E00C941D
:10069000E00EA8E1B0E0EFE4F3E00C94C40E69834F
:1006A0007A838B839C832D833E834F83588789E095
:1006B000E82EF12CEC0EFD1ECE010196B7010E9432
:1006C000D2048E010F5E1F4FCE010596B8010E9425
:1006D000D2048985823040F08989823028F0C701B0
:1006E000B8010E944A0501C08FEF6896E6E00C94BD
:1006F000E00EA8E1B0E0EFE7F3E00C94C40E6983EC
:100700007A838B839C832D833E834F83588789E034
:10071000E82EF12CEC0EFD1ECE010196B7010E94D1
:10072000D2048E010F5E1F4FCE010596B8010E94C4
:10073000D2048985823040F08989823028F0C7014F
:10074000B8010E944A0501C081E06896E6E00C9479
:10075000E00EACE0B0E0EFEAF3E00C94C80E698381
:100760007A838B839C83CE010196BE016B5F7F4FA2
:100770000E94D2048D81823061F1823050F1843048
:1007800021F48E81882351F12EC02F81388537FDC9
:1007900020C06E812F3131051CF06623F9F023C093
:1007A0008EE190E0821B930B29853A854B855C8511
:1007B00004C056954795379527958A95D2F76623B5
:1007C000B1F050954095309521953F4F4F4F5F4F79
:1007D0000EC020E030E040E050E009C02FEF3FEFD6
:1007E0004FEF5FE704C020E030E040E050E8B9019F
:1007F000CA012C96E2E00C94E40EDF92EF92FF9295
:100800000F931F93FC01E480F58006811781D1804E
:100810008081823048F480E090E0A0E1B0E0E82AF6
:10082000F92A0A2B1B2BA5C0843009F49FC0823003
:1008300021F4EE24FF24870105C0E114F104010531
:10084000110519F4E0E0F0E096C0628173819FEF3A
:10085000623879070CF05BC022E83FEF261B370BAC
:100860002A3131052CF020E030E040E050E02AC091
:10087000B801A701022E04C0769567955795479554
:100880000A94D2F781E090E0A0E0B0E004C0880FC5
:10089000991FAA1FBB1F2A95D2F70197A109B10979
:1008A0008E219F21A023B1230097A105B10521F03E
:1008B00081E090E0A0E0B0E09A01AB01282B392B59
:1008C0004A2B5B2BDA01C9018F779070A070B07052
:1008D00080349105A105B10539F427FF09C0205CDA
:1008E0003F4F4F4F5F4F04C0215C3F4F4F4F5F4F13
:1008F000E0E0F0E02030A0E03A07A0E04A07A0E402
:100900005A0710F0E1E0F0E079018A0127C0603871
:10091000710564F5FB01E158FF4FD801C7018F77DE
:100920009070A070B07080349105A105B10539F4C4
:10093000E7FE0DC080E490E0A0E0B0E004C08FE3EB
:1009400090E0A0E0B0E0E80EF91E0A1F1B1F17FFA1
:1009500005C016950795F794E794319687E01695AC
:100960000795F794E7948A95D1F705C0EE24FF2404
:100970008701EFEFF0E06E2F679566276795902F60
:100980009F77D794DD24D7948E2F8695492F462BB9
:10099000582F5D29B701CA011F910F91FF90EF9069
:1009A000DF900895FC01DB01408151812281622F9B
:1009B0006F7770E0221F2227221F9381892F880FD3
:1009C000822B282F30E0991F9927991F11969C930D
:1009D000119721153105A9F54115510561057105DD
:1009E00011F482E037C082E89FEF13969C938E93B8
:1009F00012979A01AB0167E0220F331F441F551F66
:100A00006A95D1F783E08C930DC0220F331F441FEA
:100A1000551F12968D919C911397019713969C9355
:100A20008E931297203080E0380780E0480780E4FA
:100A3000580758F314962D933D934D935C93179755
:100A400008952F3F310579F4411551056105710570
:100A500019F484E08C93089564FF03C081E08C93C3
:100A600012C01C9210C02F57304013963C932E9307
:100A7000129783E08C9387E0440F551F661F771F02
:100A80008A95D1F7706414964D935D936D937C9322
:100A9000179708951F93DC01FB019C91923008F495
:100AA00047C08081823008F443C0943051F41196DD
:100AB0001C91843099F58181682F70E0611B710968
:100AC0003FC0843021F0923031F48230B9F181811D
:100AD000882389F12DC011961C9111978230F1F075
:100AE00081811817D9F412962D913C911397828128
:100AF00093818217930794F028173907BCF0149656
:100B00008D919D910D90BC91A02D248135814681C0
:100B10005781281739074A075B0718F4112341F05A
:100B20000AC082179307A407B50740F4112319F0F0
:100B300061E070E005C06FEF7FEF02C060E070E041
:100B4000CB011F910895DF93CF9300D000D0CDB794
:100B5000DEB79B838A8381E08983EA81FB81808180
:100B6000882309F5EA81FB81218160E875E280E054
:100B700090E0422F0E94610C8983EA81FB81818190
:100B8000813029F0EA81FB818181823031F48091CA
:100B90007100909172000E94780DEA81FB81818141
:100BA0000E94A50C03C0EA81FB81808189810F909E
:100BB0000F900F900F90CF91DF910895DF93CF9317
:100BC00000D000D0CDB7DEB79B838A8381E08983D4
:100BD000EA81FB818081882339F4EA81FB8181816C
:100BE0000E94E30C898303C0EA81FB8180818981B3
:100BF0000F900F900F900F90CF91DF910895DF939A
:100C0000CF9300D000D00F92CDB7DEB79B838A83FD
:100C10006C8381E08983EA81FB818081882329F4C8
:100C20008C810E94240D898303C0EA81FB8180812D
:100C300089810F900F900F900F900F90CF91DF91BF
:100C40000895DF93CF93CDB7DEB728970FB6F8940A
:100C5000DEBF0FBECDBF9B838A837D836C835F83A2
:100C60004E8381E08983EA81FB818081882341F47E
:100C70008C819D812E813F81B9010E945D0D03C051
:100C8000EA81FB818081898128960FB6F894DEBFC6
:100C90000FBECDBFCF91DF910895DF93CF93CDB736
:100CA000DEB762970FB6F894DEBF0FBECDBF998B4B
:100CB000888B81E08F87E889F9898081882309F012
:100CC00090C080919900813031F41092990080E0B9
:100CD0000E944B0C89C080919A00813009F084C039
:100CE00010929A0080E090E0AAEFB3E48B879C8793
:100CF000AD87BE876B857C858D859E8520E030E045
:100D00004AEF54E40E941F02DC01CB018F839887D5
:100D1000A987BA876F81788589859A8520E030E038
:100D200040E85FE30E94790388232CF481E090E09F
:100D30009E838D833FC06F81788589859A8520E069
:100D40003FEF4FE757E40E94190318164CF56B85E7
:100D50007C858D859E8520E030E040E251E40E9454
:100D60001F02DC01CB01BC01CD010E944900DC0166
:100D7000CB019E838D830FC088EC90E09C838B8396
:100D80008B819C810197F1F79C838B838D819E8160
:100D900001979E838D838D819E81009769F714C092
:100DA0006F81788589859A850E944900DC01CB0195
:100DB0009E838D838D819E819A83898389819A8187
:100DC0000197F1F79A83898381E00E944B0C8FE6AB
:100DD00090E020E630E0B90149E050E00E942106B1
:100DE00003C0E889F98980818F8562960FB6F894EF
:100DF000DEBF0FBECDBFCF91DF910895DF93CF93BC
:100E0000CDB7DEB728970FB6F894DEBF0FBECDBFC3
:100E10006D837E838F8398871B828D819E81AF81B6
:100E2000B885803629E0920720E0A20720E0B207CB
:100E300008F4A5C08D819E81AF81B885813920EDF0
:100E4000920723E0A20720E0B20708F098C0ABE2C7
:100E5000B0E0EBE2F0E080818B7F8C938D819E810E
:100E6000AF81B885880F991FAA1FBB1F880F991FD4
:100E7000AA1FBB1F880F991FAA1FBB1F880F991F8E
:100E8000AA1FBB1F9C01AD0180E092E1AAE7B0E080
:100E9000BC01CD010E94960EDA01C90101979A8327
:100EA0008983E9E2F0E089818083E0E4F0E08981F0
:100EB0009A81892F99278083A0E4B0E0E0E4F0E0F4
:100EC00080818F7C8C93A0E4B0E0E0E4F0E080814E
:100ED000282F80917300882F90E082959295907FC3
:100EE0009827807F98278068822B8C93A0E4B0E0BD
:100EF000E0E4F0E08081897F8C93809174008360CE
:100F00008C83A0E4B0E0E0E4F0E08081482F8C81A5
:100F1000282F30E081E090E002C0880F991F2A95C9
:100F2000E2F78068842B8C938091740084608695AE
:100F300086958C83AAE2B0E0EAE2F0E080818B7FC4
:100F40008C93AAE2B0E0EAE2F0E08081282F8C8165
:100F5000882F90E0880F991F880F991F822B8C9300
:100F6000A0E4B0E0E0E4F0E08081877F8C93A0E42F
:100F7000B0E0E0E4F0E080818F7B8C9302C081E000
:100F80008B838B8128960FB6F894DEBF0FBECDBF42
:100F9000CF91DF910895DF93CF93CDB7DEB7AAE26B
:100FA000B0E0EAE2F0E0808188608C93CF91DF913D
:100FB0000895DF93CF93CDB7DEB7AAE2B0E0EAE2BF
:100FC000F0E0808180618C93CF91DF910895DF9371
:100FD000CF93CDB7DEB7AAE2B0E0EAE2F0E08081DD
:100FE000877F8C93CF91DF910895DF93CF93CDB717
:100FF000DEB7AAE2B0E0EAE2F0E080818F7E8C9377
:10100000CF91DF910895DF93CF93CDB7DEB7AAE2FA
:10101000B0E0EAE2F0E0808188608C93AAE2B0E080
:10102000EAE2F0E0808180618C93CF91DF910895B6
:10103000DF93CF93CDB7DEB7AAE2B0E0EAE2F0E00B
:101040008081877F8C93AAE2B0E0EAE2F0E08081C1
:101050008F7E8C93CF91DF910895DF93CF9300D053
:10106000CDB7DEB78A831982EBE2F0E0808182950A
:1010700086958770882F90E0817090700097A1F31B
:10108000ECE2F0E08A818083EBE2F0E080818295FF
:10109000869586958370882F90E081709070009778
:1010A00099F389810F900F90CF91DF910895DF938D
:1010B000CF9300D0CDB7DEB78A8319821092950006
:1010C00010929400ECE2F0E08A81808389810F9095
:1010D0000F90CF91DF910895DF93CF9300D0CDB7DC
:1010E000DEB78A8319828A818830A0F4AAE2B0E050
:1010F000EAE2F0E08081482F8A81282F30E081E009
:1011000090E0022E02C0880F991F0A94E2F7842B08
:101110008C9302C081E0898389810F900F90CF91D9
:10112000DF910895DF93CF9300D0CDB7DEB78A83E8
:1011300019828A818830A8F4AAE2B0E0EAE2F0E0FD
:101140008081482F8A81282F30E081E090E0022EB4
:1011500002C0880F991F0A94E2F7809584238C932C
:1011600002C081E0898389810F900F90CF91DF9138
:101170000895DF93CF9300D00F92CDB7DEB79B8356
:101180008A8319828A819B81009761F0EBE2F0E00B
:1011900080818823DCF7ECE2F0E08081EA81FB814A
:1011A000808302C081E0898389810F900F900F9026
:1011B000CF91DF910895DF93CF9300D000D0CDB7CA
:1011C000DEB79B838A836C8319820EC08981282FA6
:1011D00030E08A819B81FC01E20FF31F80810E9435
:1011E0002D0889818F5F898399818C81981770F38D
:1011F0000F900F900F900F90CF91DF910895DF9394
:10120000CF9300D000D0CDB7DEB79A8389837C839B
:101210006B838B819C8190939500809394008AEBE3
:1012200090E029813A81B9010E94EF0EACE2B0E072
:1012300080919800882F90E0FC01E654FF4F808158
:101240008C930F900F900F900F90CF91DF91089596
:10125000DF93CF9300D0CDB7DEB79A83898389819E
:101260009A8190939700809396000F900F90CF9162
:10127000DF910895DF93CF9300D000D00F92CDB7C8
:10128000DEB79C838B836D8319821CC0CE010296CE
:101290000E94B9088981282F30E08B819C81FC0154
:1012A000E20FF31F8A8180838981282F30E08B81B0
:1012B0009C81FC01E20FF31F80818D3069F08981F0
:1012C0008F5F89838981282F30E08D81882F90E07E
:1012D000019728173907D4F28981282F30E08B81B4
:1012E0009C81FC01E20FF31F10820F900F900F9072
:1012F0000F900F90CF91DF9108951F920F920FB62C
:101300000F9211242F933F938F939F93AF93BF938B
:10131000EF93FF93DF93CF93CDB7DEB720917500A6
:1013200030917600809194009091950082179307F8
:10133000F8F08091750090917600FC01E654FF4F23
:1013400080818823A9F0ACE2B0E080917500909193
:101350007600FC01E654FF4F80818C9380917500EC
:10136000909176000196909376008093750009C065
:1013700081E08093990081E090E0909376008093E3
:101380007500CF91DF91FF91EF91BF91AF919F9148
:101390008F913F912F910F900FBE0F901F90189536
:1013A0001F920F920FB60F9211242F933F938F939A
:1013B0009F93EF93FF93DF93CF93CDB7DEB78091E9
:1013C0009B00282F30E08091960090919700019724
:1013D0002817390788F480919B00882F90E0ECE271
:1013E000F0E02081FC01E456FF4F208380919B00B8
:1013F0008F5F80939B000DC080919B00882F90E0B1
:10140000FC01E456FF4F108210929B0081E0809314
:101410009A00CF91DF91FF91EF919F918F913F9132
:101420002F910F900FBE0F901F901895DF93CF93C1
:1014300000D00F92CDB7DEB78A836B8319828A8181
:10144000843020F58B81823008F58B81882369F404
:101450008A81882F90E0880F991FFC01E158FF4F87
:101460000190F081E02D108213C08B81813081F4D6
:101470008A81882F90E0880F991FFC01E158FF4F67
:101480000190F081E02D8FEF808302C08FEF898380
:1014900089810F900F900F90CF91DF910895DF9386
:1014A000CF9300D00F92CDB7DEB78A836B831982BA
:1014B0008A81843070F48A81882F90E0880F991F88
:1014C000FC01E958FF4F0190F081E02D8B81808372
:1014D00002C08FEF898389810F900F900F90CF9179
:1014E000DF910895DF93CF9300D000D0CDB7DEB762
:1014F0008A837C836B8319828A81843080F48A8119
:10150000882F90E0880F991FFC01E957FF4F019049
:10151000F081E02D8081EB81FC81808302C08FEF20
:10152000898389810F900F900F900F90CF91DF9159
:101530000895DF93CF9300D000D00F92CDB7DEB7E0
:101540008C836D831B828C81803208F05DC08D811D
:10155000823008F059C08C818695869586958A835D
:101560008C81877089838D81882331F58A81882FCA
:1015700090E0880F991FFC01E158FF4FA081B181D5
:101580008A81882F90E0880F991FFC01E158FF4F56
:101590000190F081E02D8081482F8981282F30E053
:1015A00081E090E0022E02C0880F991F0A94E2F7B2
:1015B000809584238C932AC08D81813039F58A816E
:1015C000882F90E0880F991FFC01E158FF4FA08100
:1015D000B1818A81882F90E0880F991FFC01E15822
:1015E000FF4F0190F081E02D8081482F8981282FC5
:1015F00030E081E090E0022E02C0880F991F0A942B
:10160000E2F7842B8C9302C08FEF8B838B810F903A
:101610000F900F900F900F90CF91DF910895DF936F
:10162000CF9300D000D00F92CDB7DEB78C836D83FF
:101630001B828C81803208F05DC08D81823008F081
:1016400059C08C818695869586958A838C81877012
:1016500089838D81882331F58A81882F90E0880FD6
:10166000991FFC01E958FF4FA081B1818A81882F21
:1016700090E0880F991FFC01E958FF4F0190F0811D
:10168000E02D8081482F8981282F30E081E090E093
:10169000022E02C0880F991F0A94E2F780958423D6
:1016A0008C932AC08D81813039F58A81882F90E012
:1016B000880F991FFC01E958FF4FA081B1818A81F1
:1016C000882F90E0880F991FFC01E958FF4F019087
:1016D000F081E02D8081482F8981282F30E081E042
:1016E00090E0022E02C0880F991F0A94E2F7842B23
:1016F0008C9302C08FEF8B838B810F900F900F9094
:101700000F900F90CF91DF910895DF93CF9300D08A
:1017100000D0CDB7DEB78C831B828C81803268F518
:101720008C818695869586958A838C81877089833E
:101730008A81882F90E0880F991FFC01E958FF4F9C
:10174000A081B1818A81882F90E0880F991FFC01C8
:10175000E958FF4F0190F081E02D8081482F898169
:10176000282F30E081E090E0022E02C0880F991F00
:101770000A94E2F784278C9302C08FEF8B838B81CE
:101780000F900F900F900F90CF91DF910895DF93FE
:10179000CF9300D000D000D0CDB7DEB78C837E834E
:1017A0006D831B828C81803228F58C81869586958D
:1017B00086958A838C81877089838A81882F90E0BF
:1017C000880F991FFC01E957FF4F0190F081E02D30
:1017D0008081282F30E08981882F90E0A90102C004
:1017E000559547958A95E2F7CA018170ED81FE8192
:1017F000808302C08FEF8B838B8126960FB6F8947F
:10180000DEBF0FBECDBFCF91DF910895DF93CF93A1
:1018100000D0CDB7DEB78A8381E089838A818032A8
:1018200028F48A8161E00E94990A01C019828981A5
:101830000F900F90CF91DF910895DF93CF9300D059
:10184000CDB7DEB78A8381E089838A81803228F42C
:101850008A8161E00E940F0B01C0198289810F907B
:101860000F90CF91DF910895DF93CF9300D0CDB744
:10187000DEB78A8381E089838A81803228F48A8175
:1018800060E00E940F0B01C0198289810F900F90B8
:10189000CF91DF910895DF93CF9300D0CDB7DEB71E
:1018A0008A8381E089838A81803220F48A810E9440
:1018B000850B01C0198289810F900F90CF91DF9124
:1018C0000895DF93CF93CDB7DEB728970FB6F8947E
:1018D000DEBF0FBECDBF6A837B838C839D834E8327
:1018E00019828A819B81AC81BD81BC01CD010E949E
:1018F000FE0689838E818330E0F48E81282F30E0CC
:1019000038872F838F8198858130910561F02F81F1
:1019100038852230310551F08F819885009759F430
:101920000E94CB0708C00E94D90705C00E94030887
:1019300002C081E08983898128960FB6F894DEBFC2
:101940000FBECDBFCF91DF910895DF93CF9300D02D
:1019500000D0CDB7DEB78A8319828A81833048F5FB
:101960008A81282F30E03C832B838B819C818130BE
:10197000910569F02B813C812230310561F08B812A
:101980009C81009771F486E00E946C080AC087E091
:101990000E946C0806C086E00E946C0887E00E94E6
:1019A0006C08AFE5B0E0EFE5F0E0808180688C93F3
:1019B00002C081E0898389810F900F900F900F9072
:1019C000CF91DF910895DF93CF9300D000D0CDB7B2
:1019D000DEB78A8319828A818330E0F48A81282FD6
:1019E00030E03C832B838B819C818130910561F0B9
:1019F0002B813C812230310551F08B819C810097F5
:101A000059F40E94E70708C00E94F50705C00E942C
:101A1000180802C081E0898389810F900F900F9090
:101A20000F90CF91DF910895DF93CF9300D0CDB782
:101A3000DEB78A8319828A810E942D0889810F90DE
:101A40000F90CF91DF910895DF93CF9300D0CDB762
:101A5000DEB78A8319828A810E94570889810F9094
:101A60000F90CF91DF910895DF93CF9300D00F9225
:101A7000CDB7DEB79B838A8319828A819B810E94BE
:101A8000B908898389810F900F900F90CF91DF91D2
:101A90000895DF93CF9300D00F92CDB7DEB79A832E
:101AA00089836B8389819A816B810E94DB080F9007
:101AB0000F900F90CF91DF910895DF93CF9300D0D7
:101AC00000D0CDB7DEB79A8389837C836B8389810D
:101AD0009A812B813C81B9010E94FF0886E00E9417
:101AE0006C080F900F900F900F90CF91DF91089599
:101AF000DF93CF9300D0CDB7DEB79A8389838981F6
:101B00009A810E9428090F900F90CF91DF9108953C
:101B1000DF93CF9300D00F92CDB7DEB79A8389833E
:101B20006B8389819A816B810E943A090F900F9093
:101B30000F90CF91DF910895DF93CF9300D0CDB771
:101B4000DEB78A8381E089838A81803248F48A8182
:101B500060E00E94990A8A8161E00E940F0B02C036
:101B600081E0898389810F900F90CF91DF91089553
:101B7000DF93CF9300D0CDB7DEB78A8381E089832E
:101B80008A81803228F48A8161E00E940F0B02C0B2
:101B900081E0898389810F900F90CF91DF91089523
:101BA000DF93CF9300D000D0CDB7DEB78A837C839C
:101BB0006B8381E089838A81803258F48B819C8198
:101BC000009739F02B813C818A81B9010E94C70BB3
:101BD00002C081E0898389810F900F900F900F9050
:101BE000CF91DF910895DF93CF93CDB7DEB780E03B
:101BF0000E94060C81E00E94060C8FE690E00E9495
:101C0000A305CF91DF910895DF93CF93CDB7DEB7D2
:101C10002E970FB6F894DEBF0FBECDBF80E090E0E8
:101C2000AAE7B4E48B879C87AD87BE876B857C85EC
:101C30008D859E8520E030E04AEF54E40E941F022B
:101C4000DC01CB018F839887A987BA876F8178855C
:101C500089859A8520E030E040E85FE30E947903BF
:101C600088232CF481E090E09E838D833FC06F81B8
:101C7000788589859A8520E03FEF4FE757E40E94F9
:101C8000190318164CF56B857C858D859E8520E0A3
:101C900030E040E251E40E941F02DC01CB01BC01B4
:101CA000CD010E944900DC01CB019E838D830FC0D2
:101CB00088EC90E09C838B838B819C810197F1F76A
:101CC0009C838B838D819E8101979E838D838D81E3
:101CD0009E81009769F714C06F81788589859A8500
:101CE0000E944900DC01CB019E838D838D819E8102
:101CF0009A83898389819A810197F1F79A838983ED
:101D00008FE690E00E944D062E960FB6F894DEBF47
:101D10000FBECDBFCF91DF910895DF93CF93CDB7A5
:101D2000DEB70E94F30D0E94040EFDCFA1E21A2E31
:101D3000AA1BBB1BFD010DC0AA1FBB1FEE1FFF1F6F
:101D4000A217B307E407F50720F0A21BB30BE40BBF
:101D5000F50B661F771F881F991F1A9469F7609506
:101D60007095809590959B01AC01BD01CF010895C0
:101D70002F923F924F925F926F927F928F929F929B
:101D8000AF92BF92CF92DF92EF92FF920F931F9389
:101D9000CF93DF93CDB7DEB7CA1BDB0B0FB6F8943A
:101DA000DEBF0FBECDBF09942A88398848885F847A
:101DB0006E847D848C849B84AA84B984C884DF80EB
:101DC000EE80FD800C811B81AA81B981CE0FD11DCF
:101DD0000FB6F894DEBF0FBECDBFED010895FB0135
:101DE000DC0101900D920020E1F70895F894FFCFF7
:101DF000796173736572000000000000000000004C
:101E0000020600000301003B003800350032003AB2
:101E10000037003400310039003600330030000054
:00000001FF
